:020000040800F2
:1000000018170020710100088D0100088F010008F9
:100010009101000893010008950100089F01000864
:100020009F0100089F0100089F0100089701000838
:10003000990100089F0100089B0100089D0100082C
:100040009F0100089F0100089F0100089F01000810
:100050009F0100089F0100089F0100089F01000800
:100060009F0100089F0100089F0100089F010008F0
:100070009F0100089F0100089F0100089F010008E0
:100080009F0100089F0100089F0100089F010008D0
:100090009F0100089F0100089F0100089F010008C0
:1000A0009F0100089F0100089F0100089F010008B0
:1000B0009F0100089F0100089F0100089F010008A0
:1000C0009F0100089F0100089F0100089F01000890
:1000D0009F0100089F0100089F0100089F01000880
:1000E0009F0100089F0100089F0100089F01000870
:1000F00000F002F800F02CF80AA090E8000C82440E
:100100008344AAF10107DA4501D100F021F8AFF2EA
:10011000090EBAE80F0013F0010F18BFFB1A43F0E5
:1001200001031847D0510000E051000000230024D3
:1001300000250026103A28BF78C1FBD8520728BFF7
:1001400030C148BF0B6070471FB51FBD10B510BD53
:1001500000F03CF81146FFF7F7FF00F073FE00F0E7
:100160005AF803B4FFF7F2FF03BC00F077F8000081
:100170004FF000500A490022884202D240F8042B76
:10018000FAE700F071F800F05DFEFEE7FEE7FEE73B
:10019000FEE7FEE7FEE7FEE7FEE7FEE7FEE7FEE737
:1001A0001807002010B500F009F8006810BD10B560
:1001B000044600F003F8046010BD000000487047DA
:1001C000B406002000487047B40600207546FFF7CB
:1001D000F9FFAE4605006946534620F00700854604
:1001E00018B020B500F020F8BDE820404FF0000620
:1001F0004FF000074FF000084FF0000B21F007010F
:10020000AC46ACE8C009ACE8C009ACE8C009ACE851
:10021000C0098D46704710B50446AFF300802046F4
:10022000BDE81040FFF79DBF00B54FF0160085B048
:10023000694601AA0A60ABBE0198002802BF0548C2
:10024000C01D20F007000399029A049B05B000BD71
:10025000090000000000000070470000014918205C
:10026000ABBEFEE7260002000F48016841F4803172
:10027000016001688903FCD5002141600B4A14210B
:1002800011600B494160016841F0807101600168B3
:100290008901FCD5416841F0020141604168C1F328
:1002A00081010229FAD1704700100240002002406B
:1002B00000841D006FEAD05010F0FF0000D0012034
:1002C000704700214FF07E5001F02EBE012102F058
:1002D000F4B90021084601F027BE2DE9F0411C4683
:1002E0001646069F00F08EFC0546216802F07AF85B
:1002F00001D225603E80BDE8F08100000844074936
:100300000844074980EA10404843064980EA5030D3
:10031000484390EA104000D103487047B979379EAE
:100320006BCAEB8535AEB2C2F5792B6D10B50446BC
:10033000304801F0EBFC112001F0F2FC2EA001F09E
:10034000E5FC012001F0ECFC2EA001F0DFFC40F206
:100350002B3001F0E5FC2FA001F0D8FC207801F053
:10036000DFFC2FA001F0D2FC607801F0D9FC30A0B6
:1003700001F0CCFCE07801F0D3FC2FA001F0C6FC2A
:10038000A07801F0CDFC2FA001F0C0FC606801F066
:10039000C7FC2EA001F0BAFC206901F0D7FE01F0E5
:1003A000BFFC2CA001F0B2FCA06801F0B9FC2DA0AC
:1003B00001F0ACFC322001F0B3FC2EA001F0A6FC51
:1003C000012001F0ADFC31A001F0A0FC202001F0E3
:1003D000A7FC35A001F09AFC3849606901F036FFAE
:1003E00001F0B4FE01F09CFCBDE8104034A001F027
:1003F0008DBC00008C5200082C72756E5F69643DE4
:10040000000000002C7363656E6172696F5F696440
:100410003D0000002C616C676F726974686D3D006F
:100420002C7472616A6563746F72793D000000001C
:100430002C6E6F6973653D002C6E6561725F6C692F
:100440006E653D002C736565643D00002C66735F2E
:10045000687A3D002C73616D706C655F636F756EBB
:10046000743D00002C626C6F636B5F73697A653D4D
:10047000000000002C747261636B65725F736561CC
:100480007263685F6D6F64653D0000002C7472617B
:10049000636B65725F677269645F706F696E7473B6
:1004A0005F6D61783D0000002C706C695F616D705C
:1004B0006C69747564655F75363D0000002474498D
:1004C0002C76616C75655F7363616C653D313030AE
:1004D000303030302C6672657175656E63795F738C
:1004E00063616C653D313030302C6379636C6573CA
:1004F0003D626C6F636B5F6D61780D0A00000000F8
:100500002DE9F74F8CB0044600200D46009001A95C
:10051000704800F09BFD704E6B46012231466068CA
:1005200001F06FFB0B906B4602223146A06801F090
:1005300068FB0A906B4604223146E06801F061FBDB
:10054000664F09906B4608223946206901F059FB35
:1005500008906B4610223946019801F052FB834601
:100560006B4610223946029801F04BFB82466B46DF
:1005700020223146606901F070FB81466B462022E3
:100580003146A06901F069FB80466B462022314666
:10059000E06901F062FB07466B4680223146039812
:1005A00001F05BFB0646012001F0BAFB2C2001F0B4
:1005B000A3FB40F22B3001F0B3FB2C2001F09CFB9D
:1005C000032001F0ADFB2C2001F096FB40F2EF3050
:1005D00001F0A6FB2C2001F08FFB206801F0A0FBAE
:1005E0002C2001F089FB0B9801F07BFB2C2001F003
:1005F00083FB0A9801F075FB2C2001F07DFB099824
:1006000001F06FFB2C2001F077FB089801F069FBEB
:100610002C2001F071FB584601F063FB2C2001F007
:100620006BFB504601F05DFB2C2001F065FB04984C
:1006300001F076FB2C2001F05FFB059801F070FBC8
:100640002C2001F059FB069801F06AFB2C2001F0E8
:1006500053FB9DF81D0001F063FB2C2001F04CFBC7
:10066000286901F05DFB2C2001F046FB0E9801F09B
:1006700057FB2C2001F040FB686801F051FB2C2057
:1006800001F03AFBE86801F04BFB2C2001F034FB51
:10069000304601F045FB2C2001F02EFB484601F0CE
:1006A0003FFB2C2001F028FB404601F039FB2C20B9
:1006B00001F022FB384601F033FB2C2001F01CFB3B
:1006C000009801F02DFB06A001F020FB00980FB070
:1006D000BDE8F08F000000200024744900007A4437
:1006E0000D0A00002DE9F04188B0054698461646EF
:1006F0000C464AA00E9F01F009FB404601F010FB9A
:1007000049A001F003FB286801F00AFB4AA001F0B0
:10071000FDFA686801F004FB4BA001F0F7FAA86845
:1007200001F0FEFA4CA001F0F1FAE86801F0F8FAE5
:100730004DA001F0EBFA286901F0F2FA4EA001F0A9
:10074000E5FA686901F0ECFA50A001F0DFFAA86957
:1007500001F0E6FA53A001F0D9FA206801F0E0FABE
:1007600055A001F0D3FA606801F0DAFA57A001F061
:10077000CDFAA06801F0D4FA5AA001F0C7FAE068F7
:1007800001F0CEFA5CA001F0C1FA206901F0C8FACC
:100790005EA001F0BBFA606901F0C2FA61A001F04D
:1007A000B5FAA06901F0BCFA65A001F0AFFA3068B3
:1007B00001F0B6FA68A001F0A9FA706801F0B0FA89
:1007C0006BA001F0A3FAB06801F0AAFA6EA001F0E4
:1007D0009DFAF06801F0A4FA71A001F097FA30696F
:1007E00001F09EFA6946744800F030FC73A001F0F5
:1007F0008DFA049801F094FA75A001F087FA059833
:1008000001F08EFA79A001F081FA384601F088FAF9
:1008100008B07BA0BDE8F04101F078BA53544154D0
:10082000532C726F77733D002C6379636C65735F33
:10083000636F756E743D00002C6379636C65735F44
:100840006D65616E3D0000002C6379636C65735FBC
:100850006D656469616E3D002C6379636C65735FDF
:100860007039353D000000002C6379636C65735F5F
:100870006D61783D000000002C646561646C696EF8
:10088000655F6379636C65733D0000002C6465618E
:10089000646C696E655F76696F6C6174696F6E73A5
:1008A0003D0000002C626C6F636B5F746F74616C51
:1008B0005F636F756E743D002C626C6F636B5F7469
:1008C0006F74616C5F6D65616E3D00002C626C6FD2
:1008D000636B5F746F74616C5F6D656469616E3DBD
:1008E000000000002C626C6F636B5F746F74616C4E
:1008F0005F7039353D0000002C626C6F636B5F7474
:100900006F74616C5F6D61783D0000002C626C6FEC
:10091000636B5F646561646C696E655F6379636C6A
:1009200065733D002C626C6F636B5F646561646C22
:10093000696E655F76696F6C6174696F6E733D0097
:100940002C747261636B65725F6379636C655F635E
:100950006F756E743D0000002C747261636B65727C
:100960005F6379636C65735F6D65616E3D00000068
:100970002C747261636B65725F6379636C65735F1E
:100980006D656469616E3D002C747261636B6572A4
:100990005F6379636C65735F7039353D00000000FB
:1009A0002C747261636B65725F6379636C65735FEE
:1009B0006D61783D00000000000000202C74726121
:1009C000636B65725F73656172636865733D000098
:1009D0002C747261636B65725F677269645F6576C0
:1009E000616C756174696F6E733D00002C6E756D7E
:1009F000657269635F6661756C74733D0000000029
:100A00000D0A00002DE9FE4306463248029064209C
:100A1000ADF80400B6F862060024642802D22E481D
:100A2000BDE8FE8300273D461FFA80F808E006EB8C
:100A30008500016A384601F003FA6D1C0746ADB225
:100A40004046A845F3D801F0B9FB0146384601F00D
:100A50006BFA8146002501AF02AB2A464946304673
:100A60000097FFF73AFC641C0A35ADB2A4B2C92D59
:100A7000F1D3BDF80400052801D2002505E0C32804
:100A800001D9BE2501E0401F85B205F10B001FFA18
:100A900080F80AE002AB2A46494630460097FFF745
:100AA0001CFC641C6D1CA4B2ADB24545F2D3D6F853
:100AB00084062044C6F88406BDF8040001F07EFBDD
:100AC000064901F0C3FB03B00549BDE8F04301F05E
:100AD000B7B90000000080BF00004842CDCC4C3DBB
:100AE0000000344270B50446D0F86C063F4901F06E
:100AF000ADFB3F4901F0A4F90546D4F8680601466C
:100B000001F0A4FB0646D4F86406014601F09EFB02
:100B1000314601F095F9012101F0CFFD294601F0A0
:100B200003FA4FF07E51884200DD0846314901F05A
:100B30008DFB0546D4F874062F4904F2646401F075
:100B400085FB294601F07CF9002222606260A260E8
:100B500020610146A281A08A4FF6FF73A4F264646B
:100B6000984202D2401CA4F8780694F88806032321
:100B700068B101280ED003280FD004280DD0052815
:100B80000BD0062819D0204601F010F921E084F896
:100B9000893670BD84F8892623E00421032802D019
:100BA000042802D002E0032100E00C2184F88936F9
:100BB000B4F87806884214D270BD1048814202DD34
:100BC00084F8892605E00E48814202DA022084F882
:100BD000890694F8890601F07BF8B4F87816884203
:100BE000EAD82046BDE8704000F0E2BF000048426D
:100BF0005F7089309A99993E3333333FAE47613DF8
:100C0000CDCCCC3C2DE9F74F80462848002637460E
:100C100050F822B034464FF4C87AB8F8625629E04A
:100C20005046854201D2204606E0B8F860162144BD
:100C3000B1FBF0F20AFB121008EB80000199006A88
:100C400001F094FC611B01F5C871194A89B252F890
:100C5000211001F0FBFA81463146584601F0F6FAC0
:100C6000394601F083FC494601F0EAF83746641C36
:100C70000646A4B2A542D3D83146584601F0E6FA5A
:100C8000394601F0E3FA04463946084601F0DEFA37
:100C900005463146084601F0D9FA294601F0D0F858
:100CA00003B02146BDE8F04F01F060BC38270008D2
:100CB0005C2A00082DE9F0410026A0F50001B1F101
:100CC000FE4F7DD200F500226FF07E0101EBE25174
:100CD000C2F3025477184FF07E52A0EBC15602EBDC
:100CE000045557EA040047D02946304601F0A8F8D9
:100CF00080462946304601F039FC414601F014F99E
:100D00000546014601F0A2FA8046454901F09EFAE7
:100D1000444901F095F806464146284601F096FA06
:100D2000314601F093FA0646384601F02FFA07469D
:100D30003D4901F08BFA3D49794451F8241001F006
:100D40007FF8314601F07CF806460121284601F083
:100D5000B4FC314601F074F805463846344901F0D8
:100D600075FA3449794451F8241001F069F829469C
:100D7000BDE8F04101F064B84FF07E51304601F01B
:100D8000F5FB05462C4901F061FA2C4901F058F8B1
:100D9000294601F05BFA2A4901F052F8294601F090
:100DA00055FA6FF0824101F04BF804462946084697
:100DB00001F04CFA214601F049FA0146284600E0CC
:100DC00003E0BDE8F04101F03BB84FF07F42B2EBE9
:100DD000400F03D2BDE8F041FFF778BAB0F1FF4F02
:100DE00008BFBDE8F081B0F1004F06D90120FFF740
:100DF000DEF9BDE8F041FFF76CBA30F0004105D0F4
:100E00006FF01606172101F058FC5BE70220FFF790
:100E1000CEF9FFF756FA80F00040BDE8F0810000FF
:100E200066F1CC3EAAAA2A3FF4FD053884430000AF
:100E30000070313F3843000021ED423E0A1180BE70
:100E4000C1ABAA3E1848816944F204021143816192
:100E50001648016821F0F0010160016841F0B0011D
:100E60000160016821F470610160016841F48061F2
:100E700001600F4940F271200860091D42F20C0028
:100E800008600C4800F042FF0B48016841F0807197
:100E900001600A4800214160016841F001010160E0
:100EA00000F0F2FCFEE700000010024004080140E0
:100EB00008380140E0500008FCED00E0001000E0C0
:100EC0002DE9F047184F0446384600F00DFC17494D
:100ED00001F02AF84FF07E560546314600F0B0FF8B
:100EE0008146384600F0F6FB07462421204600F0F4
:100EF000C3FC4946304601F017F880462061F101F5
:100F0000384601F0A3F9494601F00EF8C4E9050896
:100F1000E0612946304601F029FB494601F004F81A
:100F20002062BDE8F08700007CD9A03E000070423E
:100F30002DE9F05F8B460446C168006A01F086F92E
:100F4000A66882463146E06901F080F98146616811
:100F5000A06901F07BF9256880462946606901F0A7
:100F600075F907465946206901F070F9394600F0D5
:100F700067FF414600F064FF494601F0F7FA514629
:100F800001F0F4FAC4F800B0E660C4E90150BDE82D
:100F9000F09F2DE9F047D1F800800D4606469246B5
:100FA00099461946404601F051F9376804465146C2
:100FB000384601F04BF9214601F0D8FA044649467B
:100FC000384601F043F907465146404601F03EF9E4
:100FD000394600F035FF34602860BDE8F087F0B591
:100FE000C269ADF5007D12B100226F4609E0002014
:100FF0000DF5007DF0BD00EB82035B6A47F82230FF
:10100000521CC3699342F6D89C463C46012310E02B
:1010100054F823601A4602E044F82250521E2AB1C6
:1010200004EB820555F8045CB542F5D844F822601B
:101030005B1C6345ECD3C069401E484364213230D9
:10104000B0FBF1F057F82000D2E7000010B588B0EF
:101050000C46002819D0002C17D00178B9B1694688
:10106000283000F0E7F8009820600198606002984E
:10107000A0600398E06004982061059860619DF885
:10108000180020769DF81900607608B010BD05485C
:10109000206060600020A060E0602061606103204B
:1010A0002076F1E70000484270B50C46050001D0FB
:1010B000072C01D9002070BD40F2B46100F0DCFBC8
:1010C0002C7094B1012C14D0022C14D0032C14D009
:1010D000042C14D0052C14D0062C14D0062105F1B4
:1010E000280000F0C3F8012070BD281DFFF7E8FEBE
:1010F000F9E70021F3E70121F1E70221EFE70321FE
:10110000EDE70421EBE70521E9E720B1027822B100
:10111000283000F0D1B808467047001DFFF708BF1F
:101120002DE9F0470C46050038D0002C36D0286851
:1011300020602F68A7B3D5E902210026780812EBBA
:1011400000097141304633463246B446DB185241FD
:1011500043EAD17319EB090949410018B3EB0708B9
:1011600072EB060804D3DB1B62EB060240F00100C1
:101170000CF1010CBCF1400FE8D36060322128462D
:10118000FFF72DFFA0605F212846FFF728FFE060F2
:101190002869206168696061A869A061BDE8F0877D
:1011A000FFE70020E9E7000010B500280AD04FF45F
:1011B0000A730246002402F8014B5B1EFBD1416119
:1011C0000149016210BD0000F5792B6D30B5002892
:1011D0001DD003685B1C0360D0E902526D1842F118
:1011E0000002C0E9025202698A4200D201614269EA
:1011F00022B18A4202D88269521C8261C269802A65
:1012000006D200EB82025162C169491CC16130BD46
:10121000026A82EA423282EA524282EA4212B2FB15
:10122000F3F4026203FB1422802AF0D200EB820066
:10123000416230BD002817D0002915D0C2690A606C
:1012400082694A60D0F874268A60D0F87C26CA6029
:10125000D0F880260A61D0F884264A6190F88A2660
:101260000A7690F8890648767047000030B4002866
:101270001ED040F28C630246002402F8014B5B1E34
:10128000FBD14FF07E5282600A4A8261C26180F8CF
:10129000881659B1002180F8891680F88A164FF611
:1012A000FF71A0F8781630BC00F06ABD0321F2E7A8
:1012B00030BC7047000048422DE9F05F04000D4645
:1012C0007ED0A069E06194F8890684F88A06B4F8B3
:1012D00060064FF4C87104EB80000562B4F8600644
:1012E000401CB0FBF1F201FB1200A4F86006B4F858
:1012F0006206884202D2401CA4F86206D4F80C9020
:10130000D4F804804946404600F0A0FFA66827684C
:1013100082463146384600F099FF514600F090FD74
:101320000146284601F022F983464946084600F066
:101330008DFF05463146084600F088FF294600F03B
:101340007FFD374900F07CFD05463649584600F0E0
:101350007DFF8246314600F079FF294600F0E4FD2A
:10136000394600F06DFD20605046494600F06EFFA2
:10137000294600F0D9FD414600F062FD606031462B
:10138000584600F063FFD4F8641600F059FDC4F825
:1013900064064946584600F059FFD4F8681600F034
:1013A0004FFD5946C4F86806084600F04FFFD4F8D0
:1013B0006C1600F045FDC4F86C06B4F8700600E049
:1013C0002BE0401C80B2A4F87006D4F8148082464A
:1013D0004146484600F03AFF2769054639463046FF
:1013E00000F034FF294601F0C1F805464146304679
:1013F00000F02CFF06463946484600F027FF3146EC
:1014000000F01EFDC4E90250BAF1320F02D32046AB
:10141000FFF768FB5846BDE8F09F0846FBE7000071
:101420005F7089300AD7A33D70B50D46040041D0E6
:10143000002D3FD06421002200F8012B491EFBD172
:101440002878207068786070A878A070E878E070DC
:1014500068686060A868A060A889A0812869206188
:101460006869606114496868FEF748FFE0611349E4
:101470006868FEF743FF206211496868FEF73EFF87
:10148000606204F1240000F068FC0E4900F0DEFE0A
:10149000A06200F01FF9E062A06A00F025F9206365
:1014A0000948E063094820644FF07E506064E064BE
:1014B0006065E06570BD0000B979379E6BCAEB8549
:1014C00035AEB2C2DB0FC940000080BF0000484209
:1014D0002DE9F05FDFF8B8B10D46040006D02DB15C
:1014E000A169A068DFF8ACA1814202D30020BDE869
:1014F000F09F204600F034F92861E16B00F0D6FD42
:1015000010D05146286900F0A1FE216900F00CFDC1
:10151000064600F0DFF86063304600F0E5F8A063AF
:101520002869E0635C49206D00F090FE06465B4947
:10153000A06C00F08BFE314600F082FC064628606D
:10154000A078574F012801D0032807D13946A06D54
:1015500000F07CFE314600F073FC2860A078022881
:1015600001D0032807D13946206E00F06FFE2968AC
:1015700000F066FC2860216B606900F067FE68601F
:10158000A178E2784748012904D0022902D0032932
:1015900002D002E0444800E04448012A2AD0022A4E
:1015A0002AD000204FF40009074648452ADB04F101
:1015B0002006304600F0D1FB8046304600F0CDFBDF
:1015C000C84501DA4FF04E58514600F03FFE00F09A
:1015D00081F806464046FFF76DFB4FF0404100F0B2
:1015E00035FE00F05FFB314600F030FE394600F07A
:1015F0002DFE08E02E4900E02E4900F095FC00F099
:1016000051FBCFE700200646A860D5E9000100F0B5
:1016100017FC314600F014FC04F14801E860264B49
:101620005A46081FFFF7B5FC04F15001234B244A2A
:10163000081FFFF7AEFC04F15801224B224A081F95
:10164000FFF7A7FC04F16001204B214A081FFFF7B8
:10165000A0FCD4E90D2304F13001081FFFF799FC29
:1016600028695546514600F0F1FD216900F05CFC07
:101670000146A06A00F0E4FBA062A84203DB294611
:1016800000F074FFA062A069401CA06101202EE759
:101690009FC07F3FDB0FC940CDCCCC3DEC51383EE5
:1016A000CDCC4C3DA0ABAD3C11E9B73C8126C23C52
:1016B0000000C84200002041EA17343DFB18A73D56
:1016C00080257F3F058D853E4023773F9E7BB63E3C
:1016D0002E306F3F10B5034900F0B2FBBDE810405B
:1016E00000F002B8DB0FC93F70B5194D194C02E08C
:1016F000294600F0A5FBA042FAD201E000F036FF37
:1017000029468842FADA144900F0A0FD054600F0A7
:101710001DFD0446B0F5006F02D30024254605E008
:1017200000F04CFD294600F08EFE05460B4850F8AF
:10173000246000EB84003146406800F017FF294622
:1017400000F084FD3146BDE8704000F079BB000038
:10175000DB0FC9400000808083F9A2439C30000861
:1017600070B504464078384E98B1384D384A4FF439
:101770007A6301280FD0022813D0032817D0042839
:1017800028D0E9B33220B1FBF0F200FB121088B38D
:1017900057E0304670BD994201D2284670BD1046D0
:1017A00070BD994201D22B4870BD2B4870BDB1F578
:1017B0007A7FF2D341F657308142F0D8A1F57A70A2
:1017C00000F0FCFC012100F078FF244900F0ACFBA4
:1017D00029460BE0084600F0F1FC214900F036FDF7
:1017E000204900F0A1FBFFF77FFF3146BDE87040C4
:1017F00000F026BB04F11C0000F0AFFA002100E06D
:101800001FE0B0F17A5F01DA174903E0B0F17D5FC4
:1018100000DB1649206C00F013FB154DA84206DAD8
:10182000294600F010FE294600F00AFB08E0114DA1
:10183000A84205DD294600F099FE294600F003FE86
:101840002064206C70BD000000004842000044424B
:1018500000004C4200003C42000054420078BB456E
:10186000DB0FC94000007A45CDCC4CBDCDCC4C3D02
:101870000000424200004E42002202E000F8012B2C
:10188000491E0029FAD170472DE9F04FADF6042D1D
:10189000032000278DF82C09ADF838098DF82D7933
:1018A00040F2EF3194488DF82E79CDF83019CDF80B
:1018B0003C09DFF83CB28DF82F794FF4FA518F488C
:1018C000CDF83419CDF840093E463D46D846DFF8FC
:1018D00024923C460DF62C110DF6A800FFF7A4FD4E
:1018E00041468CA8FFF760FC414602A8FFF75CFC6C
:1018F00049460DF58B60FFF757FC41460DF5D0606A
:10190000FFF752FC9DF82C197D48FFF7CDFB78B10D
:101910000DF62C10FEF70AFD7A4800F0F7F9A24602
:10192000CDF82049CDF82449CDF828490024A7E076
:1019300075A000F0EBF97EA0D2E00DF644110DF693
:10194000A800FFF7C5FD002861D00DF6C8116C484E
:10195000FFF77CFBDFF8F491D9F804806848DDF8E4
:101960005019FFF7D2FBCDF81809D9F804106448D4
:10197000A1EB08080DF6E411FFF768FB41468CA8BF
:10198000FFF724FC414602A8FFF720FCDDF8D4193C
:10199000DDF8F0094544884204D941460DF5D06090
:1019A000FFF714FCDDF84419DDF8500900F0DEFD06
:1019B0008146DDF84419DDF8180900F0D7FDDDF89F
:1019C00044198046084600F041FCDDF8201900F07B
:1019D00037FA4946CDF82009084600F037FCDDF813
:1019E000241900F02DFA4146CDF82409084600F0EC
:1019F0002DFCDDF8281900F023FACDF82809601C29
:101A00003221B0FBF1F201FB120159B137E050A0D5
:101A100000F07CF958A000F079F9384600F080F920
:101A200058A05DE0CDF80C09DDF85009CDF810099B
:101A3000DDF84409CDF81409DDF85409CDF81C0986
:101A40000DF6741102A8FFF76BFB29460DF58B60AC
:101A5000FFF7BCFB2A460DF674110DF60C10FEF7CD
:101A60004FFD00B1761CCDF820A9CDF824A90025A2
:101A7000594602A87F1CCDF828A9FFF795FB641CE6
:101A8000DDF83409A0423FF658AF0DF658118CA886
:101A9000FFF746FB0DF519610DF58B60FFF740FB75
:101AA0000DF6AC110DF5D060FFF73AFB3B460DF695
:101AB000AC120DF519610DF658100096FEF712FEE6
:101AC0002DA000F023F9384600F02AF931A000F0EB
:101AD0001DF90EB9A02F09D031A000F017F92CA0E4
:101AE00000F014F90DF6042DBDE8F08F2EA0F4E7F8
:101AF0004019010080EE360000007A44CDCC4C3E07
:101B000000000020485100084552524F522C616C91
:101B1000676F726974686D5F696E697469616C6919
:101B20007A6174696F6E5F6661696C65640D0A0045
:101B3000444F4E452C726F77733D302C7374617433
:101B400075733D4641494C0D0A000000001000E04D
:101B50004552524F522C7369676E616C5F67656EB8
:101B6000657261746F725F656E6465645F656172F2
:101B70006C790D0A00000000444F4E452C726F77BF
:101B8000733D00002C7374617475733D4641494C7C
:101B90000D0A00002C7374617475733D0000000021
:101BA0004641494C000000005041535300000000E2
:101BB00070B50446B0F86206642804D3D4F88006F1
:101BC000401CC4F880062046FEF71CFF4FF07D51F4
:101BD00000F03CFB05466FF00101A06900F06DFDCF
:101BE000294600F02DF9A061D4F87C06401CC4F809
:101BF0007C060020A4F878062046BDE8704000F07E
:101C0000BFB82DE9F0411C4615460E460746FEF7C3
:101C100051FB80B13146384600F018FB6FF031427D
:101C200045F0400190420BDB2068084320606FF0D4
:101C30000040BDE8F0812068284320600020F8E7DC
:101C4000B0F14F4F05D32068084320604FF00040AB
:101C5000EFE7BDE8F04100F05DBA2DE9F0411C4628
:101C600015460F460646FEF725FB10B116F1FF4F4D
:101C700005D32068284320600020BDE8F081394664
:101C8000304600F0E3FAB0F19F4F07DB206845F0E3
:101C90004001084320604FF0FF30EEE7BDE8F0411F
:101CA00000F054BA70B5054600F0D8FB044620F0A9
:101CB0000040C0F1FF40C00F08D025F00040C0F147
:101CC000FF40C00F04BF0120FEF771FA204670BD2F
:101CD00018B1012803D00C20704701207047032061
:101CE000704710B5040003D52D2000F005F86042C0
:101CF000BDE8104000F014B803490A681206FCD58C
:101D00000149091D086070470038014010B50446BC
:101D100002E0FFF7F1FF641C20780028F9D110BD24
:101D20003EB5002470B10A216D46B0FBF1F201FB13
:101D30001202B0FBF1F030322A55641C50B10A2C6B
:101D4000F3D307E03020FFF7D7FF3EBD641E285DC8
:101D5000FFF7D2FF002CF9D13EBD10B5016881EA32
:101D6000413181EA514181EA41110160080A00F0E4
:101D700025FABDE810406FF0170100F09EBC00008E
:101D800070B504468069074900F060FA064900F022
:101D9000CBF80546FFF79EFC20612846FFF7A4FC20
:101DA000606170BDDB0FC94000007A4410B590F847
:101DB00089260023D0F8741601243AB1012A15D0DF
:101DC0001A4A91422BDD80F8893610BD184A91429B
:101DD00004DAB0F87A16491C89B200E00021A0F8B4
:101DE0007A160329F1D380F8894615E0114A914209
:101DF00002DD80F889360FE00F4A914204DAB0F82C
:101E00007A16491C89B200E00021A0F87A1603294D
:101E1000DBD3022180F88916A0F87A3610BD074A74
:101E20009142FBDD80F8894610BD00008FC2753DF0
:101E3000295C0F3DAE47613DCDCCCC3C0AD7233D5C
:101E400090EA010F48BF81F0004100F19683421AE9
:101E50003CBF801A89184FEAD0524FF07F4C1CEAE1
:101E6000410FA2EBD15318BF9CEA026F00F03B80F8
:101E70004FF0004C4CEA00204CEA012121FA03FC0F
:101E800010EB0C0C1ED202F1FF325FEA1C2040EB7B
:101E9000C25038BF70471CF07F0F4FEA400C18BF8C
:101EA000BCF17F4F38BF7047C3F12003994008BF92
:101EB00020F00100BCF17F4F38BF7047A0F1C04057
:101EC00000F08BBA4FEA3C00000A40EBC25028BF3A
:101ED0001CF0FF0F4FEA400CE6D018BFBCF17F4F5B
:101EE00038BF7047EAE79CEA026F05D010EA5C0F42
:101EF00008BF00F00040704710B500F028FA00BF9E
:101F000064FBBE3E014800F0A6BB00BF0000C07FDE
:101F1000401058BFC0F14040491058BFC1F1404186
:101F20008142EFF3008070474FF47F0C1CEAD0121F
:101F30001EBF1CEAD11392EA0C0F93EA0C0F00F0BB
:101F4000858090EA010F48BF42F4807240F4000C93
:101F500041F400002CF07F4120F07F4000B5814229
:101F6000A2EB03020FF2081CACEB504EC0F10000D4
:101F70009EF800E04FEA4E0E00FB0EFC38BF490011
:101F80004FEA2C1C02F5FA020CFB0EF34FEACE1EB0
:101F90004FEA112C4FEAC1210EEB635E42EB224265
:101FA0000EFB0CFC4FEA1C5300FB03114FEA112CF3
:101FB0004FEA01310EFB0CFC4FEADC4C00FB0C112C
:101FC000C14228BF09184CEB03335DF804EB10EB5A
:101FD000410143EBC250B2F57C0F38BF704729D5A1
:101FE00012F0F00F1CBF00F1C04000F0004070473D
:101FF000008182838485868788898B8C8D8E8F91E2
:102000009293959697999A9C9D9FA0A2A3A5A7A805
:10201000AAACAEB0B2B3B5B7B9BCBEC0C2C5C7C931
:10202000CCCED1D4D7D9DCDFE2E6E9ECF0F3F7FA95
:10203000FE0000004FEA400C0CF1807CBCF17E4FAA
:1020400028BF7047B0F1C04000F0C7B990EA010F57
:102050000CEAD11348BF42F48072624538BF634531
:1020600007D213F47F0F16D080EA010000F0004081
:10207000704710B500F06BF9097EFC3E00F005B822
:1020800080EA010000F00040704780EA010000F0A3
:10209000004000F0A2B912F47F0F04BF024870475D
:1020A00080EA010000F099B90000C07F50EA010CFD
:1020B00000F113801CF5000F58BFBCF5000F01D4D0
:1020C0008842704707D710F5000F58BF11F5000F71
:1020D00015D488427047894270471CF5000F04D51B
:1020E000BCF5000FF7D5814270474FF0807C1CEBA8
:1020F000400F38BF1CEB410F01D28142704710B531
:1021000000F025F9922449004FF000504FF0805123
:10211000FFF7FEBE41000B0ED3F19E0208D950F42A
:1021200000034FEA032323FA02F048BF40427047FE
:1021300010B500F00CF900BF4992248000207047D0
:102140006FF0004282EA200070470000C10DD1F11B
:102150009E0206DB4FEA002343F0004323FA02F01D
:102160007047004207D54FEA4001B1F1FE4F02D25D
:102170004FF00000704710B500F0E9F84992248054
:10218000002070476FEA20007047000010F0004107
:1021900048BF4042B0FA80F310FA03F2C3F19D0346
:1021A0000BD051EAC35101EB1220530638BF7047E0
:1021B00000F1010008BF20F001007047B0FA80F381
:1021C00010FA03F2C3F19D030AD0D90501EB1220E6
:1021D000530638BF704700F1010008BF20F001002E
:1021E0007047000050EA010C00F113801CF5000F4D
:1021F00058BFBCF5000F01D48842704707D710F5CF
:10220000000F58BF11F5000F15D48842704789425E
:1022100070471CF5000F04D5BCF5000FF7D58142BF
:1022200070474FF0807C1CEB400F38BF1CEB410F18
:1022300001D28142704710B500F089F8922449001C
:102240004FF000504FF08051FFF762BE4FF47F0C0B
:102250001CEAD0121EBF1CEAD11392EA0C0F93EABB
:102260000C0F00F0478090EA010F48BF42F48072E3
:102270004FF0004C4CEA00204CEA012102EB030233
:10228000A0FB0113A2F50002002918BF43F00103CF
:102290005B0028BF4FEA330342EB22425FEA132C74
:1022A0004CEBC2502EBFBCEB436FB2F57C0F7047B6
:1022B0004FEA036CBCF1004F08BF20F00100B2F5FB
:1022C0007C0F38BF70470BD582F0FF0212F5803FBC
:1022D000C8BF704700F1C040D8BF00F00040704751
:1022E00000F5000C5FEA4C0C48BF7047B0F1C040ED
:1022F00000F073B890EA010F0CEAD11348BF42F422
:102300008072624538BF634504D280EA010000F064
:102310000040704710B500F01AF800BF8900013E78
:1023200000F007B800F009B85FEA410C5FEA1C6CE6
:1023300008D080EA010000F050B85FEA400C5FEA84
:102340001C6CF6D14FF00040A0F5800070470EF1F4
:10235000020E2EF0030E5EF8044B244204D44FEA22
:102360004102B2F17F4F11D84FEA4003B3F17F4FE2
:102370000CD80ED14FEAD07CB2F17F4F0CEB4C0C55
:102380000CF1020C08BF4CEBD17C04E04FF0080CC0
:1023900001E04FEAD17C0CEB4C0324FA03F404F087
:1023A0000704B4F1040C06D20EEB840CBDE8104017
:1023B0004CF0010C6047DFE80CF0070802024FF018
:1023C0000040A0F5800010BD0846420018BFD2F1C1
:1023D000807288BF00F0004010BDFF2141EAD0505C
:1023E000C005704751EA000C00F113801CF5000F86
:1023F00058BFBCF5000F01D48142704707D711F5D3
:10240000000F58BF10F5000F15D481427047894264
:1024100070471CF5000F04D5BCF5000FF7D58842B6
:1024200070474FF0807C1CEB410F38BF1CEB400F16
:1024300001D28842704780EA010081EA000180EA07
:102440000100FFF7F8BE80F0004090EA010F7FF531
:10245000FEAC81F0004100F090B800004FEAD0518E
:10246000002988BFD1F1FF0240F2758001F17D01A2
:102470004FEA002070B5490840F0004038BF4008DE
:102480000EA2430E040CD25C02FB02F304FB03F326
:10249000C3F14043A3FB0254ED0D45EA442202FB85
:1024A00002F3A0FB03546D42C4F1404438BF641EE4
:1024B000A2FB05350023E2FB0453EA0B42EA434248
:1024C000A0FB023212F14004A2F12103E40903F05F
:1024D0007F031F2B32D904EBC15070BDFEFAF7F316
:1024E000F0ECE9E6E4E1DEDCD9D7D4D2D0CECCCA38
:1024F000C8C6C4C2C1BFBDBCBAB9B7B6B4B3B2B026
:10250000AFAEACABAAA9A8A7A6A4A3A2A1A09F9E68
:102510009E9D9C9B9A999897979695949393929148
:1025200090908F8E8E8D8C8C8B8A8A8989888787F4
:1025300086868584848383828281818004FB04F67D
:10254000B6EB004603D5E64248BF641CC3E7A6428B
:1025500058BF641CBFE711F0FF0F02D100F000402C
:10256000704710B5FFF7F3FE7FDBFFBE90EA010F67
:1025700048BF81F000413FF56AAC421A04D882F0AE
:102580000042A0EB020011444FEAD0524FF07F4CC2
:102590001CEA410FA2EBD15318BF9CEA026F4AD04C
:1025A0004FF0004C4CEA00204CEA012121FA03FCD8
:1025B000B0EB0C0C0FD412F0FE0F36D05FEA4C00DB
:1025C0001DD5001240EBC25038BF70471CF03F0FC2
:1025D00018BF70470BE0A2F101025FEA1C2040EB3C
:1025E000C25038BF70471CF07F0F18BF7047C3F14F
:1025F0002003994014BF401E20F00100704780085E
:102600004FEA122308BF7047B0FA80FCA2EB0C021D
:10261000CCF1280C60FA0CF093EA122F04BF00EB07
:10262000C25070474FEAC3707047130A5FEADC106C
:1026300008BF7047F6E79CEA026F04D010EA5C0F0F
:1026400008BF0020704710B5FFF781FE40DFF63E5F
:1026500081F0004070470CF00F03092B08BF0820E1
:1026600000F051800A2B0BD0082B18BF704708BF11
:102670001CF0400F0AD04FF000004FF000017047EF
:102680001CF0400F18BF4FF0004070471CF0100FB7
:1026900008D020F0704300F07F4242EAD3014FEAB5
:1026A0004370704700F0604021F07F4242EA000230
:1026B00001F07F4040EA727070474FF0FF0212EA6B
:1026C000D0521CBF92F0FF038B42C2BFD14200EB3D
:1026D000C1507047002A0AD0002B0BD0002900F00F
:1026E0000040A4BF40F0FE4040F40000704700F0FE
:1026F0000040704743024FF00B0C18BF4CF0806C49
:102700007FF400AC70471CF4801F11D01CF4E02F44
:1027100003D06FEACC31490070474FF04050EFF3DF
:10272000008222F0704242EA000282F30088704781
:102730004FF0000070470000CFD5F53F0FD0F53FB8
:102740004ECAF53F8CC4F53FC8BEF53F02B9F53F10
:102750003BB3F53F72ADF53FA8A7F53FDCA1F53FD0
:102760000E9CF53F3F96F53F6E90F53F9C8AF53FF6
:10277000C884F53FF27EF53F1B79F53F4373F53F83
:10278000686DF53F8C67F53FAF61F53FD05BF53F76
:10279000EF55F53F0D50F53F294AF53F4444F53FCD
:1027A0005D3EF53F7438F53F8A32F53F9F2CF53F8B
:1027B000B126F53FC220F53FD21AF53FE014F53FB0
:1027C000EC0EF53FF708F53F0003F53F08FDF43F39
:1027D0000DF7F43F12F1F43F15EBF43F16E5F43F2B
:1027E00016DFF43F14D9F43F10D3F43F0BCDF43F80
:1027F00004C7F43FFCC0F43FF2BAF43FE7B4F43F3F
:10280000DAAEF43FCBA8F43FBBA2F43FA99CF43F5F
:102810009696F43F8190F43F6A8AF43F5284F43FE5
:10282000397EF43F1E78F43F0172F43FE26BF43FCF
:10283000C265F43FA15FF43F7D59F43F5953F43F23
:10284000334DF43F0B47F43FE140F43FB63AF43FD9
:102850008934F43F5B2EF43F2B28F43FFA21F43FF8
:10286000C71BF43F9315F43F5D0FF43F2509F43F78
:10287000EC02F43FB1FCF33F74F6F33F36F0F33F64
:10288000F7E9F33FB5E3F33F73DDF33F2ED7F33FB3
:10289000E9D0F33FA1CAF33F58C4F33F0DBEF33F65
:1028A000C1B7F33F73B1F33F24ABF33FD3A4F33F7E
:1028B000819EF33F2C98F33FD791F33F808BF33FFA
:1028C0002785F33FCC7EF33F7178F33F1372F33FDC
:1028D000B46BF33F5365F33FF15EF33F8D58F33F25
:1028E0002852F33FC14BF33F5845F33FEE3EF33FD1
:1028F0008238F33F1532F33FA62BF33F3625F33FE3
:10290000C41EF33F5018F33FDB11F33F650BF33F59
:10291000EC04F33F72FEF23FF7F7F23F7AF1F23F39
:10292000FCEAF23F7BE4F23FFADDF23F76D7F23F7A
:10293000F1D0F23F6BCAF23FE3C3F23F59BDF23F21
:10294000CEB6F23F42B0F23FB3A9F23F23A3F23F2B
:10295000929CF23FFF95F23F6B8FF23FD588F23F9A
:102960003D82F23FA47BF23F0975F23F6C6EF23F6D
:10297000CE67F23F2F61F23F8E5AF23FEB53F23FA8
:10298000474DF23FA146F23FFA3FF23F5139F23F45
:10299000A632F23FFA2BF23F4D25F23F9D1EF23F49
:1029A000ED17F23F3A11F23F860AF23FD103F23FB0
:1029B0001AFDF13F61F6F13FA7EFF13FECE8F13F7F
:1029C0002EE2F13F6FDBF13FAFD4F13FEDCDF13FB0
:1029D0002AC7F13F64C0F13F9EB9F13FD6B2F13F43
:1029E0000CACF13F40A5F13F749EF13FA597F13F3C
:1029F000D590F13F038AF13F3083F13F5C7CF13F9A
:102A00008575F13FAD6EF13FD467F13FF960F13F5D
:102A10001C5AF13F3E53F13F5F4CF13F7D45F13F82
:102A20009B3EF13FB637F13FD030F13FE929F13F0E
:102A30000023F13F151CF13F2915F13F3B0EF13FFB
:102A40004C07F13F5B00F13F69F9F03F75F2F03F51
:102A50007FEBF03F88E4F03F90DDF03F00000000A6
:102A60000000823800008239003C123A00F8813AB6
:102A7000000ACB3A8027123B00E1463B00D7813B5E
:102A80008045A43B80B9CA3BC030F53B40D4113CE3
:102A9000E00E2B3CA046463CE079633C7053813C01
:102AA000A0E5913CA072A33C50F9B53C6078C93CCC
:102AB000C0EEDD3C005BF33CE8DD043DE887103D03
:102AC000C0AA1C3DA845293DD057363D68E0433D8E
:102AD00090DE513D6851603D08386F3D80917E3DEC
:102AE000642E873D744C8F3D70A2973DCC2FA03D46
:102AF000FCF3A83D78EEB13DA41EBB3DF483C43D7C
:102B0000CC1DCE3D90EBD73D9CECE13D5820EC3DFB
:102B10001086F63D928E003E78F2053E586E0B3ED2
:102B2000E401113EB8AC163E806E1C3ED446223EF7
:102B30006035283EBE392E3E8E53343E6C823A3E7E
:102B4000F2C5403EBC1D473E66894D3E8008543E5E
:102B5000A89A5A3E703F613E6CF6673E2EBF6E3EAD
:102B60004499753E4C847C3EE4BF813EA545853E3C
:102B700032D3883E50688C3EC404903E53A8933EA6
:102B8000C352973ED8039B3E58BB9E3E0479A23E5B
:102B90009E3CA63EEC05AA3EAFD4AD3EABA8B13EEE
:102BA0009E81B53E4C5FB93E7641BD3EDF27C13EBA
:102BB0004012C53E6400C93E03F2CC3EE2E6D03E80
:102BC000BADED43E53D9D83E67D6DC3EB4D5E03E1B
:102BD000FFD6E43E04DAE83E7FDEEC3E2EE4F03E33
:102BE000D8EAF43E35F2F83E01FAFC3E0081003F9F
:102BF000F984023FC888043F4C8C063F668F083F2B
:102C0000F7910A3FD9930C3FF1940E3F1B95103F6B
:102C10003894123F2792143FC88E163FFA89183F06
:102C20009D831A3F917B1C3FB7711E3FED65203F8E
:102C30001658223F1048243FBD35263FFB20283F31
:102C4000AF092A3FB7EF2B3FF4D22D3F4AB32F3FB6
:102C50009A90313FC26A333FA641353F2C15373F2A
:102C600030E5383F96B13A3F467A3C3F1D3F3E3F04
:102C70000000403FD4BC413F7B75433FDA29453FCC
:102C8000D5D9463F5085483F332C4A3F5ECE4B3F17
:102C9000BA6B4D3F2C044F3F9897503FE825523F69
:102CA00001AF533FCA32553F2BB1563F092A583F17
:102CB000509D593FE60A5B3FB5725C3FA5D45D3F2E
:102CC000A0305F3F9186603F60D6613FFA1F633F4F
:102CD0004A63643F38A0653FB6D6663FAA06683FA0
:102CE0000430693FB1526A3F9D6E6B3FB9836C3FC0
:102CF000F0916D3F33996E3F70996F3F9A92703F9C
:102D00009C84713F686F723FF252733F2B2F743F68
:102D10000204753F6CD1753F5C97763FC455773F91
:102D2000980C783FCEBB783F5A63793F32037A3FA5
:102D30004A9B7A3F9A2B7B3F18B47B3FBA347C3F47
:102D40007CAD7C3F531E7D3F39877D3F27E87D3F2B
:102D500016417E3F02927E3FE5DA7E3FBA1B7F3FFF
:102D60007E547F3F2D857F3FC3AD7F3F3ECE7F3F6B
:102D70009CE67F3FDCF67F3FFCFE7F3FFCFE7F3F13
:102D8000DCF67F3F9CE67F3F3ECE7F3FC2AD7F3F7C
:102D90002C857F3F7E547F3FBA1B7F3FE5DA7E3F25
:102DA00002927E3F16417E3F26E87D3F39877D3F78
:102DB000531E7D3F7CAD7C3FBA347C3F17B47B3FD4
:102DC000982B7B3F4A9B7A3F31037A3F5A63793F86
:102DD000CEBB783F980C783FC355773F5B97763FE3
:102DE0006CD1753F0204753F2A2F743FF252733F36
:102DF000686F723F9A84713F9892703F71996F3FEC
:102E000034996E3FF0916D3FB8836C3F9E6E6B3F7F
:102E1000B0526A3F0230693FAA06683FB5D6663FA6
:102E200039A0653F4863643FFA1F633F60D6613F46
:102E30009086603FA1305F3FA4D45D3FB4725C3F99
:102E4000E60A5B3F4E9D593F082A583F28B1563F3E
:102E5000CA32553F02AF533FE725523F9697503F46
:102E60002A044F3FB76B4D3F5DCE4B3F342C4A3F5A
:102E70005185483FD4D9463FDA29453F7A75433FCB
:102E8000D1BC413FFFFF3F3F1E3F3E3F447A3C3FA6
:102E900095B13A3F2FE5383F2915373FA741353FD8
:102EA000C06A333F9990313F49B32F3FF6D22D3F4F
:102EB000B6EF2B3FAC092A3FFB20283FBA35263F0F
:102EC0000F48243F1458223FEE65203FB5711E3F46
:102ED0008E7B1C3F9B831A3FF689183FC78E163F97
:102EE0002892143F3894123F1995103FF1940E3FE9
:102EF000D8930C3FF2910A3F658F083F4C8C063FF8
:102F0000C688043FF584023F0081003FFCF9FC3E87
:102F100032F2F83ED3EAF43E30E4F03E7ADEEC3EA4
:102F200003DAE83EFCD6E43EAFD5E03E64D6DC3EB4
:102F300054D9D83EB9DED43EDBE6D03E02F2CC3ED8
:102F40005F00C93E3A12C53EDA27C13E7841BD3E18
:102F50004A5FB93E9881B53EA8A8B13EAAD4AD3E1D
:102F6000EC05AA3EA23CA63E0379A23E54BB9E3E7F
:102F7000DA039B3EC852973E54A8933EC204903E4B
:102F800052688C3E31D3883EA145853EE3BF813EE9
:102F900042847C3E4699753E26BF6E3E5EF6673E95
:102FA0006A3F613E9E9A5A3E7008543E68894D3E83
:102FB000BC1D473EF8C5403E6A823A3E8853343EC7
:102FC000BE392E3E5C35283ECA46223E7A6E1C3EF5
:102FD000AEAC163EE001113E526E0B3E6AF2053E6B
:102FE000988E003E0C86F63D5C20EC3D9CECE13D6D
:102FF00084EBD73DCC1DCE3DF083C43D981EBB3D38
:1030000074EEB13DF0F3A83DB82FA03D68A2973D06
:10301000644C8F3D5C2E873D80917E3D20386F3D16
:103020007051603D88DE513D70E0433DC857363DEC
:103030009845293DC0AA1C3DE087103DD8DD043DE0
:10304000F05AF33CA0EEDD3C3078C93C30F9B53C99
:10305000A072A33CB0E5913C6053813C007A633C94
:10306000A046463CC00E2B3C40D4113C8030F53B82
:1030700040B9CA3B8045A43B00D7813B80E0463B3A
:103080008027123B0009CB3A00F8813A003C123A03
:1030900000008239000082380000000000000000BB
:1030A000C60F493B880FC93B58CB163C900E493C94
:1030B0004C517B3CB6C9963C6AEAAF3CB00AC93C6D
:1030C0007A2AE23CBA49FB3C30340A3D2CC3163D17
:1030D000CC51233D07E02F3DD56D3C3D30FB483DB5
:1030E0000F88553D6914623D38A06E3D752B7B3DC0
:1030F0000BDB833D0A208A3DB464903D05A9963DD3
:10310000F9EC9C3D8C30A33DBB73A93D81B6AF3D2E
:10311000DAF8B53DC33ABC3D397CC23D36BDC83D49
:10312000B8FDCE3DBA3DD53D387DDB3D2EBCE13D01
:103130009AFAE73D7738EE3DC075F43D73B2FA3D3B
:103140004577003E0395033E6EB2063E87CF093EAB
:103150004AEC0C3EB708103ECB24133E8340163E8B
:10316000E05B193EDE761C3E7C911F3EB6AB223EF4
:103170008CC5253EFDDE283E04F82B3EA3102F3ED5
:10318000D428323E9840353EED57383ECF6E3B3E18
:103190003E853E3E379B413EBAB0443EC2C5473EA7
:1031A0004FDA4A3E60EE4D3EF101513E0215543E6B
:1031B0008F27573E98395A3E1A4B5D3E135C603E4E
:1031C000836C633E667C663EBB8B693E809A6C3E38
:1031D000B2A86F3E51B6723E5AC3753ECDCF783E0F
:1031E000A4DB7B3EE1E67E3EC0F8803EC17D823EB0
:1031F0007002843ECF86853EDB0A873E948E883EF1
:10320000F7118A3E07958B3EC0178D3E229A8E3E5F
:103210002C1C903EDE9D913E351F933E31A0943E86
:10322000D320963E17A1973EFE20993E86A09A3E57
:10323000B01F9C3E799E9D3EDF1C9F3EE59AA03EBE
:103240008818A23EC595A33E9F12A53E138FA63EA9
:103250001F0BA83EC486A93E0102AB3ED47CAC3E07
:103260003CF7AD3E3A71AF3ECBEAB03EEF63B23EC3
:10327000A5DCB33EEC54B53EC4CCB63E2A44B83EC1
:103280001FBBB93EA131BB3EAFA7BC3E4A1DBE3EEF
:103290006F92BF3E1E07C13E557BC23E16EFC33E36
:1032A0005D62C53E29D5C63E7C47C83E54B9C93E7D
:1032B000AE2ACB3E8B9BCC3EEB0BCE3ECB7BCF3EA8
:1032C0002AEBD03E0A5AD23E67C8D33E4236D53E9C
:1032D00099A3D63E6C10D83EBA7CD93E80E8DA3E3F
:1032E000C153DC3E7ABEDD3EAA28DF3E4F92E03E6F
:1032F0006BFBE13EFB63E33EFECBE43E7533E63E13
:103300005E9AE73EB700E93E8266EA3EBBCBEB3E03
:103310006430ED3E7994EE3EFCF7EF3EEA5AF13E22
:1033200043BDF23E081FF43E3480F53ECBE0F63E4E
:10333000C840F83E2DA0F93EF8FEFA3E285DFC3E5E
:10334000BCBAFD3EB217FF3E063A003FE4E7003F3D
:103350007395013FB242023FA0EF023F3D9C033F05
:103360008948043F84F4043F2CA0053F834B063F6B
:1033700086F6063F36A1073F934B083F9BF5083F73
:103380004E9F093FAE480A3FB7F10A3F6B9A0B3F89
:10339000C9420C3FD1EA0C3F81920D3FDA390E3F12
:1033A000DBE00E3F85870F3FD52D103FCDD3103F7B
:1033B0006C79113FB01E123F9AC3123F2B68133F26
:1033C000600C143F3AB0143FB853153FDAF6153F7E
:1033D0009F99163F073C173F13DE173FC07F183FEA
:1033E0001021193F01C2193F93621A3FC5021B3FCA
:1033F00099A21B3F0C421C3F1FE11C3FD27F1D3F87
:10340000231E1E3F12BC1E3F9F591F3FCBF61F3F7E
:103410009393203FF92F213FFBCB213F9A67223F17
:10342000D302233FA99D233F1A38243F25D2243FAE
:10343000CB6B253F0B05263FE49D263F5636273FA5
:1034400061CE273F0566283F41FD283F1594293F5F
:10345000802A2A3F82C02A3F1A562B3F4AEB2B3F35
:103460000F802C3F6A142D3F5AA82D3FDE3B2E3F84
:10347000F8CE2E3FA5612F3FE6F32F3FBB85303FAF
:103480002317313F1EA8313FAB38323FCAC8323F05
:103490007A58333FBCE7333F9076343FF304353FEF
:1034A000E892353F6C20363F80AD363F233A373FB8
:1034B00055C6373F1652383F65DD383F4368393FC0
:1034C000ADF2393FA57C3A3F2A063B3F3B8F3B3F5D
:1034D000D9173C3F03A03C3FB9273D3FFAAE3D3FE3
:1034E000C6353E3F1BBC3E3FFD413F3F68C73F3FA7
:1034F0005C4C403FDAD0403FE154413F71D8413FFE
:10350000895B423F29DE423F5160433F01E2433F36
:103510003863443FF6E3443F3A64453F03E4453FA4
:103520005463463F2AE2463F8560473F66DE473F99
:10353000CB5B483FB4D8483F2155493F13D1493F61
:10354000884C4A3F80C74A3FFB414B3FF8BB4B3F4B
:1035500078354C3F7AAE4C3FFD264D3F039F4D3FA3
:1035600089164E3F908D4E3F18044F3F207A4F3FB3
:10357000A8EF4F3FB064503F37D9503F3D4D513FCA
:10358000C3C0513FC733523F49A6523F4918533F2A
:10359000C789533FC3FA533F3C6B543F32DB543F20
:1035A000A44A553F93B9553FFE27563FE595563FF0
:1035B0004803573F2670573F7FDC573F5348583FDB
:1035C000A2B3583F6A1E593FAD88593F6AF2593F2E
:1035D000A15B5A3F51C45A3F792C5B3F1B945B3F20
:1035E00035FB5B3FC7615C3FD2C75C3F532D5D3FFE
:1035F0004D925D3FBEF65D3FA75A5E3F06BE5E3F01
:10360000DB205F3F27835F3FEAE45F3F2246603F66
:10361000CFA6603FF206613F8B66613F98C5613F70
:103620001924623F1082623F7BDF623F5A3C633F56
:10363000AC98633F73F4633FAC4F643F59AA643F57
:103640007904653F0C5E653F11B7653F880F663FA3
:103650007267663FCDBE663F9915673FD76B673F80
:1036600087C1673FA816683F396B683F3CBF683F1A
:10367000AE12693F9165693FE4B7693FA7096A3FA8
:10368000D95A6A3F7BAB6A3F8CFB6A3F0C4B6B3F5E
:10369000FA996B3F58E86B3F24366C3F5E836C3F72
:1036A00007D06C3F1D1C6D3FA1676D3F93B26D3F0E
:1036B000F2FC6D3FBF466E3FF88F6E3F9ED86E3F67
:1036C000B1206F3F30686F3F1BAF6F3F73F56F3FA7
:1036D000373B703F6680703F01C5703F0809713FFE
:1036E0007A4C713F578F713FA0D1713F5313723F96
:1036F0007054723FF894723FEBD4723F4814733F9A
:103700000E53733F3F91733FD9CE733FDD0B743F30
:103710004B48743F2284743F62BF743F0BFA743F7E
:103720001D34753F976D753F7BA6753FC7DE753FAE
:103730007B16763F974D763F1B84763F07BA763FE0
:103740005BEF763F1724773F3A58773FC58B773F3B
:10375000B7BE773F11F1773FD122783FF853783FDA
:103760008684783F7BB4783FD6E3783F9812793FE0
:10377000C040793F4E6E793F439B793F9DC7793F6B
:103780005EF3793F841E7A3F10497A3F02737A3F95
:10379000599C7A3F16C57A3F38ED7A3FBF147B3F7C
:1037A000AB3B7B3FFC617B3FB2877B3FCDAC7B3F3C
:1037B0004DD17B3F31F57B3F7A187C3F283B7C3FE6
:1037C0003A5D7C3FB07E7C3F8B9F7C3FC9BF7C3F96
:1037D0006CDF7C3F73FE7C3FDE1C7D3FAC3A7D3F5F
:1037E000DE577D3F74747D3F6E907D3FCCAB7D3F57
:1037F0008CC67D3FB1E07D3F39FA7D3F24137E3F8B
:10380000722B7E3F24437E3F385A7E3FB0707E3F0E
:103810008B867E3FC99B7E3F69B07E3F6DC47E3FF5
:10382000D4D77E3F9DEA7E3FC9FC7E3F580E7F3F46
:10383000491F7F3F9E2F7F3F543F7F3F6D4E7F3F0D
:10384000E95C7F3FC86A7F3F08787F3FAB847F3F5A
:10385000B1907F3F189C7F3FE3A67F3F0FB17F3F32
:103860009EBA7F3F8FC37F3FE2CB7F3F98D37F3F9E
:10387000AFDA7F3F29E17F3F05E77F3F43EC7F3FA2
:10388000E3F07F3FE6F47F3F4AF87F3F11FB7F3F45
:1038900039FD7F3FC4FE7F3FB1FF7F3F0000803F87
:1038A000B1FF7F3FC4FE7F3F39FD7F3F11FB7F3F6C
:1038B0004AF87F3FE6F47F3FE3F07F3F43EC7F3FF2
:1038C00005E77F3F29E17F3FAFDA7F3F97D37F3F17
:1038D000E2CB7F3F8FC37F3F9EBA7F3F0FB17F3FD9
:1038E000E3A67F3F189C7F3FB1907F3FAB847F3F33
:1038F00008787F3FC76A7F3FE95C7F3F6D4E7F3F1F
:10390000543F7F3F9D2F7F3F491F7F3F580E7F3F92
:10391000C9FC7E3F9DEA7E3FD4D77E3F6DC47E3F8B
:1039200069B07E3FC89B7E3F8B867E3FB0707E3FF6
:10393000385A7E3F23437E3F722B7E3F23137E3FC8
:1039400038FA7D3FB1E07D3F8CC67D3FCBAB7D3FFC
:103950006E907D3F74747D3FDE577D3FAC3A7D3F76
:10396000DD1C7D3F73FE7C3F6CDF7C3FC9BF7C3F2D
:103970008A9F7C3FB07E7C3F3A5D7C3F283B7C3F0A
:103980007A187C3F31F57B3F4DD17B3FCDAC7B3FFF
:10399000B2877B3FFC617B3FAB3B7B3FBE147B3FF1
:1039A00037ED7A3F15C57A3F599C7A3F02737A3FCB
:1039B00010497A3F841E7A3F5EF3793F9DC7793F75
:1039C000439B793F4E6E793FC040793F9712793FD4
:1039D000D6E3783F7BB4783F8684783FF853783FCE
:1039E000D122783F10F1773FB7BE773FC58B773F45
:1039F0003A58773F1724773F5BEF763F07BA763F19
:103A00001B84763F974D763F7A16763FC6DE753F2C
:103A10007BA6753F976D753F1C34753F0BFA743F5D
:103A200061BF743F2184743F4B48743FDD0B743F8A
:103A3000D9CE733F3E91733F0E53733F4814733F8B
:103A4000EBD4723FF894723F7054723F5213723F3E
:103A50009FD1713F578F713F7A4C713F0809713F79
:103A600001C5703F6680703F363B703F73F56F3F16
:103A70001BAF6F3F30686F3FB0206F3F9ED86E3FE7
:103A8000F88F6E3FBE466E3FF2FC6D3F93B26D3FC6
:103A9000A1676D3F1D1C6D3F06D06C3F5E836C3F80
:103AA00024366C3F57E86B3FFA996B3F0C4B6B3FEA
:103AB0008CFB6A3F7AAB6A3FD95A6A3FA6096A3FD4
:103AC000E4B7693F9165693FAE12693F3CBF683F0B
:103AD0003A6B683FA816683F88C1673FD86B673F5D
:103AE0009915673FCCBE663F7167663F870F663F9B
:103AF00010B7653F0B5E653F7904653F59AA643F87
:103B0000AC4F643F72F4633FAC98633F593C633FF2
:103B10007ADF623F0F82623F1924623F97C5613F9F
:103B20008966613FF106613FCEA6603F2046603F57
:103B3000E8E45F3F25835F3FDB205F3F06BE5E3FDB
:103B4000A75A5E3FBEF65D3F4D925D3F532D5D3FF0
:103B5000D1C75C3FC6615C3F34FB5B3F1A945B3F5F
:103B6000782C5B3F4FC45A3FA05B5A3F69F2593FE4
:103B7000AC88593F6A1E593FA0B3583F5248583F3E
:103B80007EDC573F2470573F4603573FE495563F2E
:103B9000FD27563F91B9553FA24A553F30DB543F70
:103BA0003A6B543FC3FA533FC789533F4918533FB9
:103BB00049A6523FC633523FC2C0513F3D4D513FCF
:103BC00036D9503FAF64503FA7EF4F3F1F7A4F3F6A
:103BD00017044F3F8F8D4E3F88164E3F019F4D3F3C
:103BE000FC264D3F78AE4C3F76354C3FF6BB4B3F05
:103BF000F9414B3F7EC74A3F864C4A3F11D1493F6E
:103C00001F55493FB2D8483FC85B483F63DE473F36
:103C10008360473F2AE2463F5463463F03E4453F03
:103C20003964453FF5E3443F3763443F00E2433F97
:103C30005160433F28DE423F885B423F70D8413F9E
:103C4000E054413FD9D0403F5B4C403F66C73F3FC7
:103C5000FB413F3F1ABC3E3FC3353E3FF8AE3D3FC0
:103C6000B7273D3F01A03C3FD7173C3F398F3B3F33
:103C700028063B3FA37C3A3FAAF2393F4068393FD0
:103C800062DD383F1652383F55C6373F233A373F3B
:103C90007FAD363F6C20363FE792353FF304353F2A
:103CA0009076343FBCE7333F7A58333FC9C8323F40
:103CB000AA38323F1DA8313F2217313FBA85303F25
:103CC000E5F32F3FA4612F3FF6CE2E3FDD3B2E3F85
:103CD00058A82D3F68142D3F0D802C3F48EB2B3FFB
:103CE00019562B3F80C02A3F7E2A2A3F1394293F32
:103CF00042FD283F0666283F62CE273F5636273FC3
:103D0000E49D263F0B05263FCB6B253F25D2243F64
:103D10001A38243FA99D233FD302233F9967223FAE
:103D2000FACB213FF82F213F9393203FCAF61F3F44
:103D30009E591F3F11BC1E3F211E1E3FD07F1D3FBD
:103D40001EE11C3F0B421C3F97A21B3FC4021B3FBE
:103D500091621A3FFEC1193F0D21193FBE7F183FE6
:103D600013DE173F083C173F9F99163FDAF6153FC1
:103D7000B853153F3AB0143F600C143F2B68133F03
:103D80009AC3123FB01E123F6B79113FCCD3103F44
:103D9000D52D103F84870F3FDAE00E3FD9390E3F13
:103DA00080920D3FCFEA0C3FC8420C3F6A9A0B3F0E
:103DB000B6F10A3FAC480A3F4D9F093F99F5083FCD
:103DC000904B083F34A1073F84F6063F804B063FE7
:103DD0002DA0053F84F4043F8A48043F3D9C033FE7
:103DE000A0EF023FB242023F7395013FE4E7003F7C
:103DF000063A003FB217FF3EBABAFD3E265DFC3ED2
:103E0000F6FEFA3E2BA0F93EC740F83EC9E0F63E6A
:103E10003380F53E041FF43E40BDF23EE65AF13ECB
:103E2000F7F7EF3E7494EE3E5E30ED3EB6CBEB3EE0
:103E30007C66EA3EB200E93E589AE73E7633E63EBB
:103E4000FFCBE43EFB63E33E6BFBE13E4F92E03E83
:103E5000A928DF3E79BEDD3EC053DC3E7FE8DA3E76
:103E6000B87CD93E6A10D83E97A3D63E3F36D53EA1
:103E700064C8D33E075AD23E27EBD03EC77BCF3E25
:103E8000E70BCE3E889BCC3EAA2ACB3E4FB9C93E1B
:103E90007847C83E25D5C63E5762C53E10EFC33EA3
:103EA000507BC23E1807C13E6992BF3E4B1DBE3ECD
:103EB000B0A7BC3EA131BB3E1FBBB93E2A44B83EB1
:103EC000C3CCB63EEB54B53EA4DCB33EEE63B23E8B
:103ED000CAEAB03E3871AF3E3AF7AD3ED27CAC3E56
:103EE000FE01AB3EC186A93E1C0BA83E0F8FA63E2D
:103EF0009B12A53EC195A33E8318A23EE09AA03E28
:103F0000DB1C9F3E739E9D3EAA1F9C3E81A09A3E55
:103F1000F820993E11A1973ECC20963E32A0943EC7
:103F2000351F933EDE9D913E2C1C903E229A8E3E84
:103F3000BF178D3E06958B3EF7118A3E928E883EC6
:103F4000D90A873ECD86853E6E02843EBE7D823E86
:103F5000BEF8803EDBE67E3E9EDB7B3EC5CF783EF4
:103F600053C3753E49B6723EA9A86F3E769A6C3E21
:103F7000B08B693E5B7C663E786C633E085C603E5D
:103F80000D4B5D3E8B395A3E9127573E0315543EEB
:103F9000F201513E60EE4D3E4FDA4A3EC1C5473E0A
:103FA000B8B0443E359B413E3C853E3ECC6E3B3EE8
:103FB000E957383E9440353ECF28323E9D102F3E83
:103FC000FEF72B3EF6DE283E85C5253EAEAB223EF3
:103FD00073911F3ED5761C3ED75B193E7A40163E44
:103FE000C024133EAC08103E3EEC0C3E7ACF093E96
:103FF00061B2063EF594033E4777003E75B2FA3D46
:10400000C175F43D7738EE3D99FAE73D2CBCE13DB2
:10401000347DDB3DB53DD53DB2FDCE3D2FBDC83D28
:10402000317CC23DBA3ABC3DD0F8B53D75B6AF3D26
:10403000AE73A93D7E30A33DEAEC9C3DF5A8963DCC
:10404000A364903DF71F8A3DF7DA833D4C2B7B3DFF
:104050000DA06E3D3C14623DDF87553DFEFA483DA4
:10406000A16D3C3DD0DF2F3DD351233D31C3163DE3
:1040700032340A3DB949FB3C752AE23CA60AC93CE8
:104080005BEAAF3CA3C9963C1C517B3C570E493CB4
:1040900016CB163CF10EC93B740E493B2EBDBBB38B
:1040A000621149BB6910C9BBD2CB16BC130F49BC06
:1040B000D8517BBC01CA96BCB9EAAFBC040BC9BCE1
:1040C000D32AE2BC174AFBBC60340ABD5FC316BDED
:1040D000015223BDFEDF2FBDCF6D3CBD2CFB48BD83
:1040E0000D8855BD6A1462BD3BA06EBD7A2B7BBDA9
:1040F0000FDB83BD0F208ABDBA6490BD0DA996BDAC
:1041000002ED9CBD9630A3BDC673A9BD8DB6AFBDF3
:10411000E8F8B5BDD23ABCBD497CC2BD47BDC8BDFB
:10412000CAFDCEBDCD3DD5BD4C7DDBBD44BCE1BDA2
:10413000B1FAE7BD8F38EEBDD975F4BD8DB2FABDC9
:10414000537700BE019503BE6DB206BE86CF09BE91
:104150004AEC0CBEB80810BECC2413BE854016BE77
:10416000E25B19BEE1761CBE7E911FBEBAAB22BED9
:1041700091C525BE02DF28BE0AF82BBEA9102FBEAE
:10418000DB2832BEA04035BEF55738BED86E3BBEE8
:1041900047853EBE419B41BEC4B044BECDC547BE6F
:1041A0005BDA4ABE6CEE4DBEFE0151BE0F1554BE29
:1041B0009D2757BE96395ABE194B5DBE135C60BE33
:1041C000836C63BE677C66BEBC8B69BE819A6CBE25
:1041D000B5A86FBE54B672BE5EC375BED0CF78BEF2
:1041E000A9DB7BBEE7E67EBEC3F880BEC47D82BE8F
:1041F000740284BED28685BEDF0A87BE988E88BED2
:10420000FC118ABE0C958BBEC5178DBE289A8EBE3A
:10421000321C90BEE49D91BE3B1F93BE38A094BE5D
:10422000D22096BE16A197BEFE2099BE86A09ABE49
:10423000B01F9CBE799E9DBEE01C9FBEE69AA0BEAC
:104240008818A2BEC795A3BEA112A5BE148FA6BE94
:10425000220BA8BEC786A9BE0402ABBED77CACBEEB
:1042600040F7ADBE3E71AFBECFEAB0BEF363B2BEA3
:10427000AADCB3BEF154B5BEC8CCB6BE2F44B8BE9E
:1042800024BBB9BEA731BBBEB6A7BCBE501DBEBEC7
:104290006E92BFBE1D07C1BE557BC2BE16EFC3BE28
:1042A0005D62C5BE2AD5C6BE7D47C8BE54B9C9BE6B
:1042B000AF2ACBBE8D9BCCBEEC0BCEBECD7BCFBE92
:1042C0002DEBD0BE0C5AD2BE6AC8D3BE4536D5BE81
:1042D0009CA3D6BE6F10D8BEBD7CD9BE85E8DABE21
:1042E000C653DCBE7EBEDDBEAE28DFBE5492E0BE4D
:1042F00070FBE1BE0064E3BE04CCE4BE7B33E6BEEB
:104300005D9AE7BEB700E9BE8266EABEBBCBEBBEF4
:104310006430EDBE7A94EEBEFCF7EFBEEB5AF1BE10
:1043200045BDF2BE091FF4BE3680F5BECCE0F6BE38
:10433000CA40F8BE2FA0F9BEFAFEFABE2A5DFCBE46
:10434000BEBAFDBEB617FFBE083A00BFE6E700BF23
:10435000759501BFB34202BFA2EF02BF3F9C03BFEE
:104360008B4804BF86F404BF2FA005BF824B06BF55
:1043700085F606BF35A107BF924B08BF9BF508BF66
:104380004E9F09BFAE480ABFB7F10ABF6B9A0BBF79
:10439000C9420CBFD1EA0CBF81920DBFDB390EBF01
:1043A000DCE00EBF85870FBFD62D10BFCED310BF68
:1043B0006D7911BFB11E12BF9CC312BF2C6813BF11
:1043C000610C14BF3BB014BFB95315BFDBF615BF6A
:1043D000A19916BF0A3C17BF15DE17BFBF7F18BFD4
:1043E0000F2119BF00C219BF92621ABFC5021BBFBD
:1043F00099A21BBF0C421CBF1FE11CBFD27F1DBF77
:10440000231E1EBF12BC1EBFA0591FBFCBF61FBF6D
:10441000949320BFFA2F21BFFCCB21BF9B6722BF03
:10442000D50223BFAA9D23BF1B3824BF27D224BF98
:10443000CC6B25BF0C0526BFE69D26BF583627BF8F
:1044400063CE27BF076628BF43FD28BF149429BF4A
:104450007F2A2ABF81C02ABF1A562BBF4AEB2BBF27
:104460000F802CBF6A142DBF5AA82DBFDE3B2EBF74
:10447000F8CE2EBFA5612FBFE7F32FBFBC8530BF9D
:10448000231731BF1EA831BFAB3832BFCAC832BFF5
:104490007B5833BFBEE733BF917634BFF50435BFD9
:1044A000E99235BF6E2036BF82AD36BF253A37BFA1
:1044B00057C637BF185238BF64DD38BF426839BFAE
:1044C000ACF239BFA47C3ABF2A063BBF3B8F3BBF4F
:1044D000D9173CBF03A03CBFB9273DBFFAAE3DBFD3
:1044E000C6353EBF1CBC3EBFFD413FBF68C73FBF96
:1044F0005D4C40BFDBD040BFE25441BF6FD841BFED
:10450000875B42BF28DE42BF506043BF00E243BF2B
:10451000366344BFF4E344BF386445BF03E445BF9A
:10452000536346BF29E246BF856047BF65DE47BF8C
:10453000CA5B48BFB4D848BF215549BF13D149BF52
:10454000884C4ABF80C74ABFFB414BBFF8BB4BBF3B
:1045500078354CBF7AAE4CBFFE264DBF039F4DBF92
:104560008A164EBF918D4EBF19044FBF217A4FBF9F
:10457000A9EF4FBFB16450BF38D950BF3F4D51BFB5
:10458000C4C051BFC83352BF4BA652BF4B1853BF14
:10459000C98953BFC5FA53BF3D6B54BF33DB54BF0A
:1045A000A64A55BF95B955BF002856BFE79556BFD7
:1045B0004A0357BF287057BF82DC57BF554858BFC2
:1045C000A4B358BF6D1E59BFB08859BF6DF259BF13
:1045D0009F5B5ABF4FC45ABF782C5BBF19945BBF17
:1045E00033FB5BBFC6615CBFD0C75CBF532D5DBFF3
:1045F0004D925DBFBEF65DBFA65A5EBF05BE5EBFF3
:10460000DB205FBF27835FBFE9E45FBF214660BF58
:10461000CFA660BFF20661BF8B6661BF98C561BF60
:104620001A2462BF108262BF7BDF62BF5A3C63BF45
:10463000AD9863BF73F463BFAD4F64BF5AAA64BF44
:104640007A0465BF0C5E65BF11B765BF890F66BF91
:10465000726766BFCDBE66BF9A1567BFD96B67BF6D
:1046600089C167BFA91668BF3B6B68BF3DBF68BF04
:10467000B01269BF936569BFE6B769BFA8096ABF91
:10468000DB5A6ABF7CAB6ABF8DFB6ABF0D4B6BBF49
:10469000FC996BBF5AE86BBF26366CBF60836CBF5A
:1046A00009D06CBF1F1C6DBFA4676DBF92B26DBFF8
:1046B000F1FC6DBFBE466EBFF78F6EBF9DD86EBF5B
:1046C000B0206FBF2F686FBF1BAF6FBF73F56FBF99
:1046D000363B70BF668070BF01C570BF080971BFEF
:1046E0007A4C71BF578F71BF9FD171BF521372BF88
:1046F000705472BFF89472BFEBD472BF481473BF8A
:104700000E5373BF3F9173BFDACE73BFDE0B74BF1E
:104710004B4874BF228474BF62BF74BF0BFA74BF6E
:104720001D3475BF986D75BF7BA675BFC7DE75BF9D
:104730007B1676BF974D76BF1C8476BF08BA76BFCE
:104740005CEF76BF182477BF3B5877BFC68B77BF27
:10475000B8BE77BF11F177BFD22278BFF95378BFC7
:10476000878478BF7CB478BFD7E378BF991279BFCC
:10477000C14079BF4F6E79BF449B79BF9FC779BF56
:104780005FF379BF851E7ABF10497ABF01737ABF84
:10479000599C7ABF15C57ABF37ED7ABFBE147BBF6F
:1047A000AB3B7BBFFC617BBFB2877BBFCDAC7BBF2C
:1047B0004DD17BBF31F57BBF7A187CBF283B7CBFD6
:1047C0003A5D7CBFB07E7CBF8B9F7CBFC9BF7CBF86
:1047D0006CDF7CBF73FE7CBFDE1C7DBFAC3A7DBF4F
:1047E000DF577DBF75747DBF6E907DBFCCAB7DBF45
:1047F0008DC67DBFB1E07DBF39FA7DBF24137EBF7A
:10480000722B7EBF24437EBF385A7EBFB0707EBFFE
:104810008B867EBFC99B7EBF6AB07EBF6DC47EBFE4
:10482000D4D77EBF9DEA7EBFC9FC7EBF580E7FBF36
:104830004A1F7FBF9E2F7FBF553F7FBF6E4E7FBFFA
:10484000EA5C7FBFC86A7FBF08787FBFAB847FBF49
:10485000B1907FBF199C7FBFE3A67FBF0FB17FBF21
:104860009EBA7FBF8FC37FBFE2CB7FBF97D37FBF8F
:10487000AFDA7FBF29E17FBF05E77FBF43EC7FBF92
:10488000E3F07FBFE6F47FBF4AF87FBF11FB7FBF35
:1048900039FD7FBFC4FE7FBFB1FF7FBF000080BF77
:1048A000B1FF7FBFC4FE7FBF39FD7FBF11FB7FBF5C
:1048B0004AF87FBFE6F47FBFE3F07FBF43EC7FBFE2
:1048C00005E77FBF29E17FBFAFDA7FBF97D37FBF07
:1048D000E2CB7FBF8FC37FBF9EBA7FBF0FB17FBFC9
:1048E000E3A67FBF189C7FBFB0907FBFAB847FBF24
:1048F00008787FBFC76A7FBFE95C7FBF6D4E7FBF0F
:10490000543F7FBF9D2F7FBF491F7FBF580E7FBF82
:10491000C9FC7EBF9DEA7EBFD3D77EBF6DC47EBF7C
:1049200069B07EBFC89B7EBF8A867EBFAF707EBFE8
:10493000375A7EBF23437EBF712B7EBF23137EBFBA
:1049400038FA7DBFB1E07DBF8DC67DBFCCAB7DBFEA
:104950006E907DBF75747DBFDE577DBFAC3A7DBF65
:10496000DD1C7DBF73FE7CBF6CDF7CBFC9BF7CBF1D
:104970008A9F7CBFB07E7CBF3A5D7CBF283B7CBFFA
:104980007A187CBF31F57BBF4DD17BBFCDAC7BBFEF
:10499000B2877BBFFC617BBFAA3B7BBFBE147BBFE2
:1049A00037ED7ABF15C57ABF599C7ABF01737ABFBC
:1049B00010497ABF841E7ABF5DF379BF9DC779BF66
:1049C000429B79BF4E6E79BFBF4079BF971279BFC6
:1049D000D5E378BF7AB478BF858478BFF75378BFC2
:1049E000D02278BF0FF177BFB6BE77BFC48B77BF39
:1049F000395877BF162477BF5AEF76BF06BA76BF0D
:104A00001A8476BF954D76BF791676BFC5DE75BF21
:104A100079A675BF966D75BF1B3475BF09FA74BF53
:104A200062BF74BF228474BF4B4874BFDE0B74BF77
:104A3000DACE73BF3F9173BF0E5373BF481473BF79
:104A4000EBD472BFF89472BF705472BF521372BF2E
:104A50009FD171BF578F71BF7A4C71BF080971BF69
:104A600001C570BF668070BF363B70BF73F56FBF06
:104A70001BAF6FBF2F686FBFB0206FBF9DD86EBFD9
:104A8000F78F6EBFBE466EBFF1FC6DBF92B26DBFB9
:104A9000A1676DBF1C1C6DBF06D06CBF5D836CBF72
:104AA00023366CBF57E86BBFF9996BBF0A4B6BBFDE
:104AB0008AFB6ABF79AB6ABFD75A6ABFA5096ABFCA
:104AC000E2B769BF8F6569BFAC1269BF3ABF68BF03
:104AD000376B68BFA61668BF85C167BFD66B67BF57
:104AE000971567BFCABE66BF6F6766BF850F66BF93
:104AF0000EB765BF095E65BF760465BF56AA64BF81
:104B0000AD4F64BF73F463BFAD9863BF5A3C63BFDE
:104B10007BDF62BF108262BF1A2462BF98C561BF8B
:104B20008B6661BFF20661BFCFA660BF214660BF42
:104B3000E9E45FBF27835FBFDB205FBF05BE5EBFC9
:104B4000A65A5EBFBEF65DBF4D925DBF532D5DBFE1
:104B5000D0C75CBFC6615CBF33FB5BBF19945BBF52
:104B6000782C5BBF4FC45ABF9F5B5ABF69F259BFD5
:104B7000AC8859BF691E59BFA0B358BF514858BF30
:104B80007DDC57BF247057BF460357BFE39556BF20
:104B9000FC2756BF91B955BFA24A55BF2FDB54BF62
:104BA000396B54BFC0FA53BFC58953BF461853BFB2
:104BB00046A652BFC33352BFBFC051BF3A4D51BFCB
:104BC00033D950BFAC6450BFA4EF4FBF1C7A4FBF66
:104BD00014044FBF8C8D4EBF85164EBF039F4DBF33
:104BE000FE264DBF7AAE4CBF78354CBFF8BB4BBFED
:104BF000FB414BBF80C74ABF884C4ABF13D149BF56
:104C0000215549BFB4D848BFCA5B48BF65DE47BF1E
:104C1000856047BF29E246BF536346BF03E445BFF3
:104C2000386445BFF4E344BF366344BF00E243BF8A
:104C3000506043BF28DE42BF875B42BF6FD841BF91
:104C4000DF5441BFD8D040BF5A4C40BF66C73FBFBA
:104C5000FA413FBF1ABC3EBFC3353EBFF7AE3DBFB2
:104C6000B6273DBF01A03CBFD7173CBF388F3BBF25
:104C700027063BBFA27C3ABFAAF239BF3F6839BFC3
:104C800062DD38BF135238BF52C637BF1F3A37BF35
:104C90007CAD36BF682036BFE49235BFEF0435BF28
:104CA0008B7634BFB8E733BF765833BFC5C832BF41
:104CB000A63832BF18A831BF231731BFBC8530BF1B
:104CC000E7F32FBFA5612FBFF8CE2EBFDE3B2EBF6F
:104CD0005AA82DBF6A142DBF0F802CBF4AEB2BBFE3
:104CE0001A562BBF81C02ABF7F2A2ABF149429BF1E
:104CF00040FD28BF046628BF60CE27BF553627BFBA
:104D0000E29D26BF090526BFC96B25BF24D224BF5B
:104D1000183824BFA79D23BFD20223BF976722BFA5
:104D2000F9CB21BFF72F21BF919320BFC8F61FBF3A
:104D30009D591FBF0FBC1EBF201E1EBFCF7F1DBFB2
:104D40001CE11CBF09421CBF96A21BBFC2021BBFB5
:104D50008F621ABFFDC119BF0C2119BFBC7F18BFDC
:104D60000FDE17BF033C17BF9A9916BFD5F615BFC4
:104D7000B35315BF35B014BF5B0C14BF266813BF07
:104D800096C312BFAB1E12BF667911BFC8D310BF46
:104D9000D02D10BF7F870FBFDCE00EBFDB390EBF09
:104DA00081920DBFD1EA0CBFC9420CBF6B9A0BBFF9
:104DB000B7F10ABFAE480ABF4E9F09BF9BF508BFB7
:104DC000924B08BF35A107BF85F606BF824B06BFD1
:104DD0002CA005BF83F404BF884804BF3C9C03BFDC
:104DE0009EEF02BFB04202BF719501BFE3E700BF73
:104DF000053A00BFAF17FFBEB7BAFDBE235DFCBECC
:104E0000F3FEFABE28A0F9BEC340F8BEC5E0F6BE68
:104E10002F80F5BE021FF4BE3DBDF2BEE35AF1BEC7
:104E2000F5F7EFBE7294EEBE5C30EDBEB3CBEBBED9
:104E30007A66EABEAF00E9BE559AE7BE6C33E6BEBD
:104E4000F5CBE4BEF163E3BE61FBE1BE4592E0BE9B
:104E50009F28DFBE6FBEDDBEB653DCBE75E8DABE8E
:104E6000AE7CD9BE6010D8BE8DA3D6BE3536D5BEB9
:104E70005AC8D3BE0B5AD2BE2CEBD0BECC7BCFBE11
:104E8000EB0BCEBE8C9BCCBEAE2ACBBE54B9C9BEFA
:104E90007C47C8BE29D5C6BE5C62C5BE15EFC3BE81
:104EA000547BC2BE1C07C1BE6D92BFBE481DBEBEB4
:104EB000ADA7BCBE9E31BBBE1CBBB9BE2744B8BEAD
:104EC000C0CCB6BEE954B5BEA1DCB3BEEB63B2BE86
:104ED000C7EAB0BE3571AFBE38F7ADBECF7CACBE51
:104EE000FB01ABBEBE86A9BE190BA8BE0C8FA6BE29
:104EF0009812A5BEBE95A3BE8018A2BEDD9AA0BE24
:104F0000D81C9FBE709E9DBEA71F9CBE7EA09ABE51
:104F1000F52099BE0EA197BEC92096BE28A094BECA
:104F20002B1F93BED39D91BE221C90BE179A8EBE9E
:104F3000B5178DBEFB948BBEEC118ABE878E88BEE2
:104F4000CE0A87BEC28685BE630284BEB37D82BEA2
:104F5000C2F880BEE5E67EBEA7DB7BBECECF78BEC4
:104F60005CC375BE52B672BEB3A86FBE809A6CBEEB
:104F7000BA8B69BE657C66BE816C63BE115C60BE27
:104F8000174B5DBE94395ABE8B2757BEFD1454BED5
:104F9000EC0151BE5AEE4DBE49DA4ABEBBC547BE12
:104FA000B2B044BE309B41BE36853EBEC66E3BBEEF
:104FB000E35738BE8E4035BECA2832BE97102FBE8A
:104FC000F8F72BBEF0DE28BE7FC525BEA8AB22BEFB
:104FD0006D911FBECF761CBED15B19BE744016BE4C
:104FE000BA2413BEA60810BE38EC0CBE74CF09BE9E
:104FF0005BB206BEEF9403BE327700BE4BB2FABD81
:105000009775F4BD4C38EEBD6EFAE7BD02BCE1BD4C
:105010000A7DDBBD8A3DD5BD87FDCEBD04BDC8BDC3
:10502000067CC2BD903ABCBDA5F8B5BD4AB6AFBDC1
:10503000C373A9BD9330A3BDFFEC9CBD0AA996BD67
:10504000B86490BD0C208ABD0CDB83BD742B7BBD86
:1050500035A06EBD641462BD078855BD26FB48BDF2
:10506000C96D3CBDF8DF2FBDBB5123BD19C316BDB3
:105070001A340ABD8A49FBBC462AE2BC770AC9BC7D
:105080002CEAAFBC74C996BCBE507BBCF90D49BCC0
:10509000B8CA16BC360EC9BBFC0C49BB2EBD3B348E
:1050A000000000000030F13D0070643E0000A33EAF
:1050B0000090CF3E0090F83E00400F3F00E0203FC0
:1050C0000000000015B78337CDE37B380EE1C5380B
:1050D00060F69138AF5F0F38E1BC3E3823F44739B2
:1050E000424F4F542C70726F746F636F6C3D6373DB
:1050F00073702D72646D722D706C692D76302E3543
:105100002E302C696D706C656D656E746174696F9D
:105110006E3D302E342E312C736368656D613D72A7
:10512000646D722D626C6F636B2D6373762D7633B5
:105130002C6669726D776172655F726576697369F5
:105140006F6E3D31370D0A0072756E5F69642C73A6
:1051500063656E6172696F5F69642C616C676F7201
:105160006974686D2C736565642C6E2C696E70753E
:10517000742C636C65616E2C6F75747075742C740F
:105180007275655F6672657175656E63792C65739E
:1051900074696D617465645F6672657175656E636F
:1051A000792C657374696D617465645F667265718D
:1051B00075656E63795F6E6578742C747261636B6C
:1051C00065725F63616C6C732C747261636B657282
:1051D0005F73656172636865732C747261636B657C
:1051E000725F677269645F6576616C756174696F1F
:1051F0006E732C73746174652C6379636C65732CA6
:10520000626C6F636B5F6379636C65735F746F74FB
:10521000616C2C626C6F636B5F6379636C65735F49
:105220006D65616E2C626C6F636B5F6379636C6537
:10523000735F7039352C726573696475616C5F7268
:105240006174696F2C646573697265645F656E650E
:105250007267792C696E7075745F6572726F725FB8
:10526000656E657267792C6F75747075745F6572A1
:10527000726F725F656E657267792C6E756D65729F
:1052800069635F666C6167730D0A0000434F4E46A9
:1052900049472C70726F746F636F6C3D63737370EA
:1052A0002D72646D722D706C692D76302E352E3016
:1052B0002C696D706C656D656E746174696F6E3D9F
:1052C000302E342E312C736368656D613D72646DD0
:1052D000722D626C6F636B2D6373762D76332C6643
:1052E00069726D776172655F7265766973696F6EF9
:1052F0003D000000045300080000002018170000C3
:045300002C01000874
:04000005080001717D
:00000001FF
